:020000040000FA
:1000000000006F2A2A308312CD00CE0108308316FB
:1000100085008312850109308312A900AA010930E5
:10002000AB00AC010130AD00AE01AF01B001B101D8
:10003000B201B301B401B501B6018312B701831255
:10004000851D24288312B70A83123708013A031D3D
:10005000D92801303107B700B801B80D3208B80708
:1000600000308312BA004D30B900BB013908FE00E0
:100070003A08FF00003071238312BA007F08B900EC
:100080002F08BB003008BC00BD01BE01BF01C0018C
:1000900083123E08803EC1003808803E4102031DA5
:1000A000532837083D020318832883123F084F3E28
:1000B000C1000030C20040080318400FC2074108C9
:1000C000831284008313831242188317831200085B
:1000D0008312C3008312840A00088312C400390803
:1000E0004306031D7A283A084406031D7A28BB0AF2
:1000F0000319BC0A02308312BF070318C00ABD0AE5
:100100000319BE0A482883123B08AF003C08B00020
:100110003C083B04031D8F28AD01AE0192288312D9
:10012000AF01B00183122D08013A031D9B282E0850
:10013000003A03193028831235084F3EB7000030CB
:10014000B80036080318360FB80737088312840042
:100150008313831238188317390883128000840AA6
:1001600083123A08831280000A30FD000030FE003E
:1001700083123908FF003A08D5238312AA007F08AA
:10018000A9000A30FD000030FE003908FF003A08DF
:100190000B238312AC007F08AB000230B5070318B5
:1001A000B60AB10A0319B20A6430FF000030002514
:1001B0001D28831231080A3A031DEF293208003A3C
:1001C000031DEF2934083304031DEF290930A9006A
:1001D000AA010930B700B801B901BA0183120514A8
:1001E00083122908BB003B0C0318F82883128510E2
:1001F000031CFC2883128514831205110512851631
:100200000130FF00003000258312051083123708EB
:10021000BB003B0C03180E2983128510031C122906
:100220008312851483120511051285160130FF0013
:10023000003000258312B90A0319BA0A00303A02C5
:10024000031D242964303902031CEE288312A901FE
:10025000AA01B701B801B901BA01831205148312CA
:100260002908BB003B0C0318372983128510031C97
:100270003B29831285148312051105128512013062
:10028000FF00003000258312051083123708BB00E1
:100290003B0C03184D2983128510031C512983122E
:1002A000851483120511051285120130FF000030FC
:1002B00000258312B90A0319BA0A00303A02031D55
:1002C000632932303902031C2D2909308312A90019
:1002D000AA010930B700B801B901BA0183120514A7
:1002E00083122908BB003B0C031878298312851060
:1002F000031C7C29831285148312051105128516AF
:100300000130FF00003000258312051083123708EA
:10031000BB003B0C03188E2983128510031C922905
:100320008312851483120511051285160130FF0012
:10033000003000258312B90A0319BA0A00303A02C4
:10034000031DA42964303902031C6E298312A901FC
:10035000AA01B701B801B901BA01831205148312C9
:100360002908BB003B0C0318B72983128510031C16
:10037000BB298312851483120511051285120130E1
:10038000FF00003000258312051083123708BB00E0
:100390003B0C0318CD2983128510031CD12983122D
:1003A000851483120511051285120130FF000030FB
:1003B00000258312B90A0319BA0A00303A02031D54
:1003C000E32932303902031CAD2909308312A90018
:1003D000AA010930AB00AC01B30A0319B40A8312B5
:1003E000051483122908B700370C0318F929831262
:1003F0008510031CFD2983128514831229080239F4
:10040000031D0130B700370C0318082A83120511A9
:10041000031C0C2A83120515831229080439031DB5
:100420000130B700370C0318172A83120512031C7A
:100430001B2A83120516831229080839031D01306F
:10044000B700370C0318262A83128512031C2A2AA8
:10045000831285160130FF0000300025831205103D
:1004600083122B08B700370C0318382A8312851023
:10047000031C3C2A8312851483122B080239031DA6
:100480000130B700370C0318472A83120511031CEB
:100490004B2A8312051583122B080439031D0130E2
:1004A000B700370C0318562A83120512031C5A2A68
:1004B0008312051683122B080839031D0130B7007B
:1004C000370C0318652A83128512031C692A8312CC
:1004D00085160130FF00003000251D2808002B3054
:1004E000FE000530FF00803000000000A524000061
:1004F000000083120000E4007F08E3002D30E500D7
:100500000530E600831200006308E7006408E80095
:10051000FF30E307031CE403680867040319072B93
:1005200004306507E700E801E80D6608E80767089A
:10053000FE006808FF00803000000000A5240000D5
:10054000000083120000EA007F08E9006508FE0051
:100550006608FF00803000000000A52400000000B5
:1005600083120000EC00E8007F08E700EB00023097
:100570006507E700E801E80D6608E8076708FE0080
:100580006808FF00803000000000A5240000000083
:1005900083120000E800EE007F08ED00E700831200
:1005A00000006908ED006A08EE00FF30E907031C4F
:1005B000EA036E086D040319002B6B08FE006C083B
:1005C000FF00803000000000922400000000831231
:1005D0000000ED0067088312031384008313831265
:1005E0000000681883176D088312031380008312BC
:1005F0000000EB0A0319EC0AE70A0319E80ACF2AFC
:10060000063083120000E5070318E60A822A00007C
:1006100000000228080083160000A1007F08A00047
:100620007E08A3007D08A2000314A11F0310A401EB
:10063000A40D24080319242B2009A5002109A600D4
:10064000A50A0319A60A2A2B831600002008A50074
:100650002108A600831600002508A0002608A10096
:100660000314A31F0310A501A50D25080319402B92
:100670002209A6002309A700A60A0319A70A462BE8
:10068000831600002208A6002308A7008316000096
:100690002608A200FD002708A300FE002008FF0096
:1006A000210800000000C62400000000831600009E
:1006B000A1007F08A0002508A406240803196B2BBD
:1006C0002009A4002109A200A40A0319A20A2408EF
:1006D000FF002208702B831600002008FF0021086D
:1006E00008008312A2007F08A1007E08A000FE007F
:1006F0002108FF002208A5248312A600A4007F0879
:10070000A300A5000310240CA800230CA7000310CD
:10071000A80CA70C2708A5062808A6060310240C79
:10072000A800230CA7000310A80CA70C0310A80C0A
:10073000A70C2708A5062808A606230E0F39A70030
:10074000240EA800F039A704A8060310A80CA70CD3
:100750002708A5062808A6060130A505A60103104E
:10076000240CA800230CA700250CA401A40CA301B1
:1007700024082804A600FD002708A500FC00200886
:10078000FE002108FF00220883246430FD000030B1
:10079000FE0083122508FF00260836248312A100DC
:1007A0007F08A000FF002108080083160000B800A1
:1007B0007F08B7007E08BA007D08B9000314B81F8F
:1007C0000310BB01BB0D3B080319EE2B3709BC001E
:1007D0003809BD00BC0A0319BD0AF42B83160000BA
:1007E0003708BC003808BD00831600003C08B7007D
:1007F0003D08B8000314BA1F0310031C072C390965
:10080000BC003A09BD00BC0A0319BD0A0D2C8316B1
:1008100000003908BC003A08BD00831600003C08FF
:10082000B900FD003D08BA00FE003708FF00380897
:100830000000000036240000000083160000B8000D
:100840007F08B7003B080319302C3709BB00380973
:10085000B900BB0A0319B90A3B08FF003908352C57
:10086000831600003708FF003808080083160000D0
:10087000B1007F08B0007E08B3007D08B200B4016B
:10088000B5018316000033088039031D0130B6001E
:100890003608031D622C0310B20DB30D330831026C
:1008A000031D542C3208300203185C2C03108316ED
:1008B0000000B30CB20C622C83160000B50A350898
:1008C000B400412C8316000033083102031D6A2C4A
:1008D00032083002031C742C831600003208B00268
:1008E0003308031C330FB102031083160000B30C4E
:1008F000B20C3408B500B4033508031D622C30086F
:10090000FF0031080800003A0319872C08007E0810
:10091000840083137F1883177C088000840A7D0875
:1009200080000800003A0319992C803A0319A02C82
:1009300000347E08840083137F18831700080800A2
:100940007F088A007E0882000800003A0319AD2C57
:10095000803A0319B72CFF0100347E08840083130A
:100960007F1883170008FF00840A000808000000B1
:100970000000A024FD00FE0FFF03FF0A000000009E
:10098000A024FC007D08FF007C08080083160000FE
:10099000A9007F08A8007E08AB007D08AA00AC0172
:1009A000AD011030AE008316000029088039031D08
:1009B0000130AF000310A80DA90D0310AC0DAD0D53
:1009C0002F08031D2C142B082D02031DE92C2A08C7
:1009D0002C02031CF42C831600002A08AC022B08FE
:1009E000031C2B0FAD022814831600002E03AF004A
:1009F000AE002F08031DD32C2808FF00290808008B
:100A00008312C6007F08C500C701C80183124608CB
:100A10004802031D0D2D4508470203182A2DE83012
:100A20008312C9000330CA00FF3083124907CB008C
:100A3000FF30CC004A0803184A0FCC074B08C90006
:100A40004C08CA004C084B04031D142DC70A031997
:100A5000C80A062D08000134003433340534BE348E
:080A60000034013400340034BD
:00000001FF
